:100000000080002039130000791300007B130000EA
:1000100000000000000000000000000000000000E0
:100020000000000000000000000000007D13000040
:1000300000000000000000007F130000811300009A
:100040008313000083130000831300008313000058
:100050008313000000000000A910000083130000BB
:100060008313000083130000831300008313000038
:100070008313000083130000831300008313000028
:100080008313000083130000831300008313000018
:100090008313000083130000831300008313000008
:1000A0008313000083130000000000000000000024
:1000B0000000000000000000000000000000000040
:1000C000054B0648033310B51B1A062B03D9044B06
:1000D000002B00D0984710BD6C0000206C00002061
:1000E000000000000648074910B5091A8910CB0F17
:1000F0005918491003D0044B002B00D0984710BD6D
:100100006C0000206C0000200000000010B5074CBF
:100110002378002B09D1FFF7D3FF054B002B02D02A
:10012000044800E000BF0123237010BD6C000020D4
:1001300000000000BC130000094B10B5002B03D0D9
:100140000849094800E000BF08480368002B02D1B5
:10015000FFF7C8FF10BD064B002BF9D09847F7E713
:100160000000000070000020BC13000068000020A8
:1001700000000000164B002B00D1144B9D4640227E
:1001800092029A1A924600218B460F461348144A4F
:10019000121A00F067F80F4B002B00D098470E4B57
:1001A000002B00D098470020002104000D000D48CE
:1001B000002802D00C4800E000BF00F02DF820001D
:1001C000290000F08BF900F011F8C046000008008B
:1001D0000080002000000000000000006C000020F3
:1001E000C00000200000000000000000084B10B517
:1001F0000400002B02D0002100E000BF054B18686E
:10020000836A002B00D09847200000F033F8C046E6
:1002100000000000B41300000E4B70B500251E0056
:100220000D4CE41AA410A54204D0AB00F358984733
:100230000135F8E701F0B0F8084B00251E00084C26
:10024000E41AA410A54204D0AB00F3589847013536
:10025000F8E770BD60000020600000206000002012
:100260006400002003008218934202D01970013309
:10027000FAE77047FEE7C04680B500AF00F036F8F9
:10028000031E06D0134B144A1A60144B802212022C
:100290001A6000F06BF8031E05D08023DA05C12335
:1002A000DB000121D15000F087F8031E0ED00C4B6B
:1002B0001B68012B07D00A4B0A4A1A60C046084B3C
:1002C0001B68012BFBD1084BC0221A60C046BD46FB
:1002D00080BDC04604050040DFFF07C0186C004029
:1002E00000EC06407593000014EC064080B500AFAA
:1002F0001A4B1B68FF221340012B2AD1184B1B6895
:100300000F22134025D1174B1B68F022134006D152
:10031000154B1B68F022134001D101231AE0114B49
:100320001B68F0221340102B06D10F4B1B68F022E4
:10033000134001D101230DE00A4B1B68F02213404A
:10034000302B06D1084B1B68F022134001D101234A
:1003500000E000231800BD4680BDC046E00F00F05D
:10036000E40F00F0E80F00F0EC0F00F080B500AFF4
:100370000D4B1B68FF221340012B11D10B4B1B6847
:100380000F2213400CD10A4B1B68F0221340402B64
:1003900006D1084B1B68F022134001D1012300E075
:1003A00000231800BD4680BDE00F00F0E40F00F010
:1003B000E80F00F0EC0F00F080B500AF144B1B68A5
:1003C000FF221340012B1ED1124B1B680F2213403A
:1003D00019D1114B1B68F0221340A02B06D10F4BF3
:1003E0001B68F022134001D101230DE00A4B1B686A
:1003F000F0221340D02B06D1084B1B68F02213408B
:1004000001D1012300E000231800BD4680BDC04695
:10041000E00F00F0E40F00F0E80F00F0EC0F00F048
:1004200080B582B000AF78600A00FB1C1A701520FE
:1004300000F040FDC046BD4602B080BD80B586B02C
:1004400000AF00F0A5FC03007B617B693B613B6969
:10045000002B03D03B69180000F046F83B1D180044
:1004600003231A000021FFF7FDFE3B1D1900152094
:1004700000F0D0FC03007B617B69FB60FB68002B14
:1004800003D0FB68180000F02FF83A00114B100061
:10049000190004231A0000F075FF3B0003225A7074
:1004A0000D4A3B001900112000F010FD03007B6194
:1004B0007B69BB60BB68002B03D0BB68180000F0F1
:1004C00013F80121112000F067FDC046BD4606B0BB
:1004D00080BDC046B81300002104000080B500AF05
:1004E000FFF7ACFFFEE7C04680B586B000AF78608E
:1004F0000C23FB1800221A800C23FB1800225A60E0
:100500000C23FB187A689A600C23FB1804481A0025
:10051000002100F017F8C046BD4606B080BDC046B9
:100520000140000080B500AFBFF34F8F034B044A7A
:10053000DA60BFF34F8FC046FDE7C04600ED00E034
:100540000400FA0580B584B000AFF860B9607A6045
:10055000FFF7E8FFC046BD4604B080BD80B582B05D
:1005600000AF0200FB1D1A70064BFA1D1278110035
:100570001F220A40012191400A001A60C046BD4670
:1005800002B080BD00E100E080B582B000AF0200A3
:10059000FB1D1A700749FB1D1B781A001F2313400F
:1005A00001229A40C0235B00CA50C046BD4602B03B
:1005B00080BDC04600E100E0B0B582B000AF0200EF
:1005C0003960FB1D1A70FB1D1B787F2B32D92F4C15
:1005D000FB1D1B781A000F231340083B99082B4A78
:1005E000FB1D1B7818000F230340083B9B080633B4
:1005F0009B00D31804331B68FA1D127810000322E5
:100600000240D200FF2090400200D2431A403B68D3
:100610009B01FF201840FB1D1B781D0003232B406E
:10062000DB00984003001A438B1D9B00E318043342
:100630001A6027E0164CFB1D1B785BB29B0814491F
:10064000FA1D127852B29208C03292005258F91D27
:100650000978080003210140C900FF2088400100FB
:10066000C94311403A689201FF201040FA1D1278E8
:10067000150003222A40D200904002000A43C033F2
:100680009B001A51C046BD4602B0B0BD00ED00E06F
:1006900000E100E080B582B000AF0200FB1D1A70DF
:1006A000BB1D0A1C1A70BB1D1A78FB1D1B785BB2A0
:1006B00011001800FFF780FFFB1D1B785BB21800CC
:1006C000FFF762FFFB1D1B785BB21800FFF746FFC8
:1006D000C046BD4602B080BD80B582B000AF02000A
:1006E000BB1D1A80BB1D1B88180000F01DF80300FD
:1006F0001B68013B5A425341DBB21800BD4602B0B1
:1007000080BDC04680B582B000AF0200BB1D1A801C
:10071000BB1D1B88180000F007F8030000221A60B8
:10072000C046BD4602B080BD80B582B000AF0200B9
:10073000BB1D1A80BB1D1B88034A944663441800E6
:10074000BD4602B080BDC0460060004080B582B0AA
:1007500000AF78600449C1239B007A68CA50C04644
:10076000BD4602B080BDC0460060004080B582B08A
:1007700000AF7860044AC1239B00D3587A681340C5
:100780001800BD4602B080BD0060004080B582B058
:1007900000AF78600849084A7B684533FF339B0007
:1007A0009B5801221A437B684533FF339B005A5004
:1007B000C046BD4602B080BD0060004090B585B027
:1007C00000AFF860B960FB1D1A701649154AFB6846
:1007D0004533FF339B009B58134A1A40FB6845334F
:1007E000FF339B005A500F480E4AFB684533FF33D6
:1007F0009B009A58BB681902F8235B011940FB1D46
:100800001B781B041C00C0239B0223400B431A438C
:10081000FB684533FF339B001A50C046BD4605B008
:1008200090BDC04600600040FFE0FCFF80B582B094
:1008300000AF7860064A7B684533FF339B009A58C7
:10084000F8235B0113401B0A1800BD4602B080BDAF
:100850000060004080B582B000AF7860074A7B68D6
:100860004533FF339B009A58C0239B0213401B0C57
:10087000DBB21800BD4602B080BDC046006000403B
:1008800090B585B000AFF860B9601900FB1D1A7013
:10089000BB1D0A1C1A701A49194AFB684533FF33FD
:1008A0009B009B58174A1A40FB684533FF339B0057
:1008B0005A501348124AFB684533FF339B009A583D
:1008C000BB681902F8235B011940FB1D1B781B0450
:1008D0001C00C0239B0223401943BB1D1B781B0532
:1008E0001C0080235B0323400B431A43FB68453302
:1008F000FF339B001A50C046BD4605B090BDC046B0
:1009000000600040FFE0ECFF90B583B000AF78607E
:100910000C0010001900FB1C221C1A70BB1C021CCE
:100920001A707B1C0A1C1A70A023DB05FA1C1178B4
:10093000BA1C1278520011437A1C127892001143AB
:100940001822BA181278120211431C22BA1812780F
:10095000120411437A68C132FF329200D150C0466E
:10096000BD4603B090BDC04680B584B002AF78608C
:1009700078680023019300230093002301220121C2
:10098000FFF7C2FFC046BD4602B080BD80B584B04F
:1009900002AF78600A00FB1C1A70FB1C1A7878689A
:1009A0000023019300230093130000220021FFF78E
:1009B000ABFFC046BD4602B080BDC04680B584B026
:1009C00000AF7860A023DB057A68C132FF32920065
:1009D000D35802229343FB60A023DB057A68C1321F
:1009E000FF329200F968D150C046BD4604B080BDC8
:1009F00080B582B000AF78600A00FB1C1A70A0239B
:100A0000DB05A022D2057968C131FF3189008A58FF
:100A10000E4911407A68C132FF329200D150A023B2
:100A2000DB05A022D2057968C131FF3189008A58DF
:100A3000F91C0978090411437A68C132FF32920027
:100A4000D150C046BD4602B080BDC046FFFFFCFF8E
:100A500080B582B000AF7860A023DA0501217B6801
:100A60009940A123DB00D150C046BD4602B080BDF5
:100A700080B582B000AF7860A023DB0501217A68E1
:100A800091400A0002495A50C046BD4602B080BD9E
:100A90000C05000080B582B000AF786001227B6851
:100AA0009A401300180000F005F8C046BD4602B099
:100AB00080BDC04680B584B000AF7860A023DB0560
:100AC0000B4A9B58FB60A023DA05FB68DB4379687F
:100AD0001940A123DB00D150A023DB05FA68796817
:100AE0000A4004495A50C046BD4604B080BDC046C5
:100AF000040500000C05000080B500AFA023DA0556
:100B0000A223DB00D3581800BD4680BD80B582B05B
:100B100000AF7860A023DB057A68C132FF32920013
:100B2000D258C0239B0213401B0CDBB21800BD46F9
:100B300002B080BD80B582B000AF7860064A7B68A5
:100B4000D31814331B785BB201335A1E9341DBB2C6
:100B50001800BD4602B080BD8800002080B582B07C
:100B600000AF78600D4A7B68D31814331B785BB2F2
:100B7000002B09DB094A7B68D31814331B785BB25E
:100B8000032B01DC012300E000231A1C0123134086
:100B9000DBB21800BD4602B080BDC0468800002010
:100BA00080B582B000AF7860074A7B68D3181433F1
:100BB0001B7801225BB2032B01DC00231A1CD3B289
:100BC0001800BD4602B080BD8800002080B582B00C
:100BD00000AF7860064A7B68D31814331B78DB4378
:100BE000DBB2DB09DBB21800BD4602B080BDC046F7
:100BF0008800002080B584B000AFF860B9607A60EA
:100C00001A00FB1C1A70BB68D9B2104AFB68D318D3
:100C100014330A1C1A700D4BBA6892007968D150CF
:100C2000FB1C1B7801225340DBB2002B09D0BB68B0
:100C3000043BFA68D0B2054A3421D3185B18021C71
:100C40001A70C046BD4604B080BDC0468800002072
:100C500080B582B000AF7860044A7B68D318143343
:100C6000FE221A70C046BD4602B080BD880000203A
:100C700080B582B000AF7860044A7B68D318143323
:100C8000FF221A70C046BD4602B080BD8800002019
:100C900080B582B000AF7860044A7B68D318143303
:100CA0001B785BB21800BD4602B080BD88000020F2
:100CB00080B582B000AF7860034B7A689200D35859
:100CC0001800BD4602B080BD8800002080B588B005
:100CD00000AFF860B960FB1D1A701F23FB18FF22DC
:100CE0001A70FB1D1B78002B01D0002300E00423A9
:100CF0007B61FB1D1B78002B01D0042300E0052342
:100D00003B617B69BB6114E0104BBA699200D35818
:100D100001330BD1FB1D1B78BA68B969F868FFF77E
:100D200069FF1F23FB18BA691A7006E0BB6901331B
:100D3000BB61BA693B699A42E6D31F23FB181B7853
:100D40005BB21800BD4608B080BDC04688000020D8
:100D500080B582B000AF0200FB1D1A70FB1D1A782F
:100D60000A4B920001214942D150FB1D1B78032BF5
:100D700008D9FB1D1B78043B044A3421D3185B18A7
:100D8000FF221A70C046BD4602B080BD8800002018
:100D900080B582B000AF1E4B35229B5C002B01D08A
:100DA000082331E0FB1D00221A7009E0FB1D1B78AF
:100DB0001800FFF75DFFFB1D1A78FB1D01321A704A
:100DC000FB1D1B781F2BF1D9FB1D00221A7009E0B7
:100DD000FB1D1B781800FFF7BBFFFB1D1A78FB1DDE
:100DE00001321A70FB1D1B78042BF1D90321062058
:100DF000FFF750FC80231B061800FFF7A7FC044BED
:100E000035220121995400231800BD4602B080BD4F
:100E10008800002090B585B000AF7860396000236D
:100E2000FB607B681800FFF785FE031E02D00823D5
:100E3000FB603AE03B689B78002B1ED00B23FC182C
:100E40007B68012200211800FFF740FF0300237098
:100E50000B23FB181B785BB201330BD00B23FB1861
:100E6000002018563B681A783B685B787968FFF772
:100E700007FD06E00423FB6003E07B681800FFF732
:100E8000E7FEFB68002B10D13B685B78012B04D197
:100E90007B681800FFF7DCFD03E07B681800FFF7B4
:100EA000E7FD7B681800FFF75FFDFB681800BD4693
:100EB00005B090BD80B582B000AF78607B68180047
:100EC000FFF7E8FDC046BD4602B080BD90B587B0D3
:100ED00000AFF860B9607A6000237B61FB6818009E
:100EE000FFF774FE031E02D008237B614DE0BB6850
:100EF000DA781323FC187968FB681800FFF7E6FE20
:100F0000030023701323FB181B785BB201333AD024
:100F1000BB689B78002B04D0FB681800FFF74EFDE0
:100F200006E0BB685A78FB6811001800FFF72EFD39
:100F3000BB68DB78002B0AD01323FB18002018565F
:100F4000BB681A78FB681900FFF738FC1DE0132313
:100F5000FB181B785BB2043B1322BA18127852B20A
:100F6000043A0C4934208A1812181178BA68127899
:100F70009201D2B20A43D0B2064A3421D3185B1888
:100F8000021C1A7001E004237B617B691800BD46D6
:100F900007B090BD8800002080B586B000AF7860B3
:100FA0000A00FB1C1A707B681800FFF7F9FD031E8E
:100FB0003DD07B681800FFF76BFE0300043B394A05
:100FC0003421D3185B181A781623FB181A701523CE
:100FD000FB181622BA18127892091A701523FB18FA
:100FE0001B78032B0FD1FFF787FD010001227B68DF
:100FF0009A4013000B4001D0032200E00222172385
:10100000FB181A700AE01523FB181B78012B01D17D
:10101000022200E003221723FB181A701723FB1883
:101020001A787B6811001800FFF7E2FC35E07B6856
:101030001800FFF793FD031E2FD07B681800FFF701
:1010400027FE03003B613B699BB240339AB20E23FB
:10105000FB1892001A803B691800FFF797FB0E23DC
:10106000FB181B881800FFF74DFBFB1C1B78002B9F
:1010700013D07B681800FFF70BFE03001800FFF782
:1010800017FE0300BB60BB68002B06D001223B6942
:101090009A4013001800FFF759FBC046BD4606B042
:1010A00080BDC0468800002090B593B000AF0023FB
:1010B0007B6400233B643A23FB18802252001A8091
:1010C00001237B630023FB6324E03A23FB181B8886
:1010D0001800FFF701FB031E0FD07B6B1800FFF712
:1010E00045FB031E09D03A23FB181B881800FFF7A5
:1010F00009FB7A6C7B6B13437B647B6B5B007B63CC
:101100003A23FB183A22BA18128804321A80FB6B71
:101110000133FB63FB6B032BD7D9BE235B001800A5
:10112000FFF7DAFA031E0DD0BE235B001800FFF7AD
:10113000E9FA7B6C8022120613437B64FFF7DCFC28
:1011400003003B647B6C0F2213402CD001237B6394
:101150000023FB6324E07B6B7A6C13401AD0FB6B9B
:101160001800FFF763FB03007B622323FC18FB6B73
:101170001800FFF76FFB03002370FB6B1800FFF7ED
:1011800097FD0300FB612323FB1819787A6AFB693A
:10119000100098477B6B5B007B63FB6B0133FB6349
:1011A000FB6B032BD7D97B6C002B00DBBDE033231B
:1011B000FB1800221A700023FB6201235B42BB6212
:1011C0003323FB1800221A700023FB638DE0594A79
:1011D0003421FB6BD3185B181A781B23FB181A7089
:1011E0001B23FB181B78C02293437B61514A342197
:1011F000FB6BD3185B181B785BB2013300D171E035
:10120000BA6A7B69DA4013000122134000D169E019
:101210001323FB181B22BA18127892091A707B69E3
:101220001800FFF735FD03001800FFF741FD03002C
:10123000FB60FB68002B04D11323FB181B78032BE6
:1012400050D101227B699A4013007B631323FB1862
:101250001B78032B03D1FA6A7B6B1343FB620B23CE
:10126000FC187B691800FFF751FC030023707B6BAF
:101270003A6C134004D00B23FB181B78022B08D0C8
:101280007B6B3A6C13402DD10B23FB181B78032B7F
:1012900028D11323FB181B78032B19D10B23FB1820
:1012A0001B78022B01D1032200E002220A23FB1843
:1012B0001A700A23FB181A787B6911001800FFF7CF
:1012C00097FB3323FB183322BA18127801321A70B5
:1012D000FB68002B06D01323FB1819787A69FB688A
:1012E00010009847FB6B0133FB63FB6B002B00D1B5
:1012F0006DE73323FB181B78002B10D0FFF7FCFBA6
:1013000003007B607A683B6C9A4204D13323FB185C
:1013100000221A7003E07B683B64FB6ABB623323E4
:10132000FB181B78002B00D04AE7C046BD4613B01F
:1013300090BDC0468800002003210A4802680A4385
:101340000260094802680A4302600849084A094BDA
:101350009B1A03DD043BC858D050FBDCFEF78CFF22
:10136000FEF708FF2405004054050040C8130000A4
:10137000000000206C000020FEE7FEE7FEE7FEE72D
:10138000FEE7FEE7002310B59A4203D0CC5CC454BC
:101390000133F9E710BD0000F8B5C046F8BC08BC41
:1013A0009E467047F8B5C046F8BC08BC9E467047DC
:1013B00043000000000000200300000100000000C6
:0813C000B4EDFF7F0100000005
:1013C8000000000000000000000000000000000015
:1013D8000000000000000000000000000000000005
:1013E800B013000000000000000000000000000032
:1013F80000000000000000000000000000000000E5
:1014080000000000000000000000000000000000D4
:1014180000000000000000000000000000000000C4
:0C142800390100000D0100000000000070
:0400000300001339AD
:00000001FF
